{
  "contractName": "casino",
  "abi": [
    {
      "constant": true,
      "inputs": [],
      "name": "numberOfBets",
      "outputs": [
        {
          "name": "",
          "type": "uint256"
        }
      ],
      "payable": false,
      "stateMutability": "view",
      "type": "function"
    },
    {
      "constant": true,
      "inputs": [
        {
          "name": "",
          "type": "address"
        }
      ],
      "name": "playerInfo",
      "outputs": [
        {
          "name": "amountBet",
          "type": "uint256"
        },
        {
          "name": "numberSelected",
          "type": "uint256"
        }
      ],
      "payable": false,
      "stateMutability": "view",
      "type": "function"
    },
    {
      "constant": true,
      "inputs": [],
      "name": "owner",
      "outputs": [
        {
          "name": "",
          "type": "address"
        }
      ],
      "payable": false,
      "stateMutability": "view",
      "type": "function"
    },
    {
      "constant": true,
      "inputs": [],
      "name": "minimumBet",
      "outputs": [
        {
          "name": "",
          "type": "uint256"
        }
      ],
      "payable": false,
      "stateMutability": "view",
      "type": "function"
    },
    {
      "constant": true,
      "inputs": [],
      "name": "maxAmountOfBets",
      "outputs": [
        {
          "name": "",
          "type": "uint256"
        }
      ],
      "payable": false,
      "stateMutability": "view",
      "type": "function"
    },
    {
      "constant": true,
      "inputs": [
        {
          "name": "",
          "type": "uint256"
        }
      ],
      "name": "players",
      "outputs": [
        {
          "name": "",
          "type": "address"
        }
      ],
      "payable": false,
      "stateMutability": "view",
      "type": "function"
    },
    {
      "constant": true,
      "inputs": [],
      "name": "totalBet",
      "outputs": [
        {
          "name": "",
          "type": "uint256"
        }
      ],
      "payable": false,
      "stateMutability": "view",
      "type": "function"
    },
    {
      "inputs": [
        {
          "name": "_minimumBet",
          "type": "uint256"
        }
      ],
      "payable": false,
      "stateMutability": "nonpayable",
      "type": "constructor"
    },
    {
      "payable": true,
      "stateMutability": "payable",
      "type": "fallback"
    },
    {
      "constant": false,
      "inputs": [],
      "name": "kill",
      "outputs": [],
      "payable": false,
      "stateMutability": "nonpayable",
      "type": "function"
    },
    {
      "constant": true,
      "inputs": [
        {
          "name": "player",
          "type": "address"
        }
      ],
      "name": "checkPlayerExists",
      "outputs": [
        {
          "name": "",
          "type": "bool"
        }
      ],
      "payable": false,
      "stateMutability": "view",
      "type": "function"
    },
    {
      "constant": false,
      "inputs": [
        {
          "name": "numberSelected",
          "type": "uint256"
        }
      ],
      "name": "bet",
      "outputs": [],
      "payable": true,
      "stateMutability": "payable",
      "type": "function"
    },
    {
      "constant": false,
      "inputs": [],
      "name": "generateNumber",
      "outputs": [],
      "payable": false,
      "stateMutability": "nonpayable",
      "type": "function"
    },
    {
      "constant": false,
      "inputs": [
        {
          "name": "numberWinner",
          "type": "uint256"
        }
      ],
      "name": "distributePrizes",
      "outputs": [],
      "payable": false,
      "stateMutability": "nonpayable",
      "type": "function"
    }
  ],
  "bytecode": "0x60606040526064600455341561001457600080fd5b604051602080610a1c83398101604052808051906020019091905050336000806101000a81548173ffffffffffffffffffffffffffffffffffffffff021916908373ffffffffffffffffffffffffffffffffffffffff160217905550600060015414151561008457806001819055505b50610988806100946000396000f3006060604052600436106100ba576000357c0100000000000000000000000000000000000000000000000000000000900463ffffffff168063145b0563146100bc5780632ca8c6d3146100d15780634081d916146100fa57806341c0e1b51461014b5780634b114691146101605780636ca3fc3b146101b45780637365870b146101d75780638da5cb5b146101ef578063c38a8afd14610244578063e08a96cd1461026d578063f71d96cb14610296578063fe5e1853146102f9575b005b34156100c757600080fd5b6100cf610322565b005b34156100dc57600080fd5b6100e4610342565b6040518082815260200191505060405180910390f35b341561010557600080fd5b610131600480803573ffffffffffffffffffffffffffffffffffffffff16906020019091905050610348565b604051808215151515815260200191505060405180910390f35b341561015657600080fd5b61015e6103e3565b005b341561016b57600080fd5b610197600480803573ffffffffffffffffffffffffffffffffffffffff16906020019091905050610474565b604051808381526020018281526020019250505060405180910390f35b34156101bf57600080fd5b6101d56004808035906020019091905050610498565b005b6101ed60048080359060200190919050506106d1565b005b34156101fa57600080fd5b61020261082a565b604051808273ffffffffffffffffffffffffffffffffffffffff1673ffffffffffffffffffffffffffffffffffffffff16815260200191505060405180910390f35b341561024f57600080fd5b61025761084f565b6040518082815260200191505060405180910390f35b341561027857600080fd5b610280610855565b6040518082815260200191505060405180910390f35b34156102a157600080fd5b6102b7600480803590602001909190505061085b565b604051808273ffffffffffffffffffffffffffffffffffffffff1673ffffffffffffffffffffffffffffffffffffffff16815260200191505060405180910390f35b341561030457600080fd5b61030c61089a565b6040518082815260200191505060405180910390f35b60006001600a4381151561033257fe5b0601905061033f81610498565b50565b60035481565b600080600090506005805490508110156103dc578273ffffffffffffffffffffffffffffffffffffffff1660058281548110151561038257fe5b906000526020600020900160009054906101000a900473ffffffffffffffffffffffffffffffffffffffff1673ffffffffffffffffffffffffffffffffffffffff1614156103d357600191506103dd565b600091506103dd565b5b50919050565b6000809054906101000a900473ffffffffffffffffffffffffffffffffffffffff1673ffffffffffffffffffffffffffffffffffffffff163373ffffffffffffffffffffffffffffffffffffffff161415610472576000809054906101000a900473ffffffffffffffffffffffffffffffffffffffff1673ffffffffffffffffffffffffffffffffffffffff16ff5b565b60066020528060005260406000206000915090508060000154908060010154905082565b6104a06108a0565b6000806000806000809450600093505b6005805490508410156105f2576005848154811015156104cc57fe5b906000526020600020900160009054906101000a900473ffffffffffffffffffffffffffffffffffffffff16925086600660008573ffffffffffffffffffffffffffffffffffffffff1673ffffffffffffffffffffffffffffffffffffffff1681526020019081526020016000206001015414156105935782868660648110151561055357fe5b602002019073ffffffffffffffffffffffffffffffffffffffff16908173ffffffffffffffffffffffffffffffffffffffff168152505084806001019550505b600660008473ffffffffffffffffffffffffffffffffffffffff1673ffffffffffffffffffffffffffffffffffffffff1681526020019081526020016000206000808201600090556001820160009055505083806001019450506104b0565b600060058161060191906108df565b50606460025481151561061057fe5b049150600090505b848410156106c857600073ffffffffffffffffffffffffffffffffffffffff16868260648110151561064657fe5b602002015173ffffffffffffffffffffffffffffffffffffffff161415156106bb57858160648110151561067657fe5b602002015173ffffffffffffffffffffffffffffffffffffffff166108fc839081150290604051600060405180830381858888f1935050505015156106ba57600080fd5b5b8080600101915050610618565b50505050505050565b6106da33610348565b1515156106e657600080fd5b600181101580156106f85750600a8111155b151561070357600080fd5b600154341015151561071457600080fd5b34600660003373ffffffffffffffffffffffffffffffffffffffff1673ffffffffffffffffffffffffffffffffffffffff1681526020019081526020016000206000018190555080600660003373ffffffffffffffffffffffffffffffffffffffff1673ffffffffffffffffffffffffffffffffffffffff16815260200190815260200160002060010181905550600360008154809291906001019190505550600580548060010182816107c8919061090b565b9160005260206000209001600033909190916101000a81548173ffffffffffffffffffffffffffffffffffffffff021916908373ffffffffffffffffffffffffffffffffffffffff160217905550503460026000828254019250508190555050565b6000809054906101000a900473ffffffffffffffffffffffffffffffffffffffff1681565b60015481565b60045481565b60058181548110151561086a57fe5b90600052602060002090016000915054906101000a900473ffffffffffffffffffffffffffffffffffffffff1681565b60025481565b610c80604051908101604052806064905b600073ffffffffffffffffffffffffffffffffffffffff168152602001906001900390816108b15790505090565b815481835581811511610906578183600052602060002091820191016109059190610937565b5b505050565b815481835581811511610932578183600052602060002091820191016109319190610937565b5b505050565b61095991905b8082111561095557600081600090555060010161093d565b5090565b905600a165627a7a7230582049b654ce9918539f4ceb8a430f97943bb61920998b06735b7a5ccacd2324a29e0029",
  "source": "pragma solidity ^0.4.17;\n\n\ncontract casino {\n    address public owner;\n    uint256 public minimumBet;\n    uint256 public totalBet;\n    uint256 public numberOfBets;\n    uint256 public maxAmountOfBets = 100;\n    address[] public players;\n\n    struct Player {\n        uint256 amountBet;\n        uint256 numberSelected;\n    }\n\n// The address of the player and => the user info\n    mapping(address => Player) public playerInfo;\n\n// Fallback function in case someone sends ether to the \n//contract so it doesn't get lost and to increase the \n//treasury of this contract that will be distributed in each game\n   function() public payable {}\n\n\n    function casino(uint256 _minimumBet) public {\n        owner = msg.sender;\n        if (minimumBet != 0) {\n            minimumBet = _minimumBet;\n        }\n    }\n\n    function kill() public {\n        if (msg.sender == owner) {\n            selfdestruct(owner);\n        }\n    }\n\n\n    function checkPlayerExists(address player) public constant returns(bool) {\n        for (uint256 i = 0; i < players.length; i++) {\n            if (players[i] == player) {\n                return true;\n            }\n            return false;\n        }\n    }\n\n// To bet for a number between 1 and 10 both inclusive\n    function bet(uint256 numberSelected) public payable {\n        require(!checkPlayerExists(msg.sender));\n        require(numberSelected >= 1 && numberSelected <= 10);\n        require(msg.value >= minimumBet);\n\n        playerInfo[msg.sender].amountBet = msg.value;\n        playerInfo[msg.sender].numberSelected = numberSelected;\n        numberOfBets++;\n        players.push(msg.sender);\n        totalBet += msg.value;\n    }\n\n// Generates a number between 1 and 10 that will be the winner\n    function generateNumber() public {\n        uint256 numberGenerated = block.number % 10 + 1;\n        distributePrizes(numberGenerated);\n    }\n\n// Sends the corresponding ether to each winner depending on the total bets\n    function distributePrizes(uint256 numberWinner) public {\n        address[100] memory winners;\n        uint256 count = 0;\n\n        for (uint256 i = 0; i < players.length; i++) {\n            address playerAddress = players[i];\n            if (playerInfo[playerAddress].numberSelected == numberWinner) {\n                winners[count] = playerAddress;\n                count++;\n            }\n            delete playerInfo[playerAddress];\n        }\n\n        players.length = 0;\n        uint256 winnerEtherAmount = totalBet / winners.length;\n        for (uint256 j = 0;i < count; j++) {\n            if (winners[j] != address(0))\n            winners[j].transfer(winnerEtherAmount);\n        }\n    }\n}",
  "sourcePath": "/home/abhishek/Desktop/casino ethereum/contracts/casino.sol",
  "compiler": {
    "name": "solc",
    "version": "0.4.21+commit.dfe3193c.Emscripten.clang"
  },
  "schemaVersion": "2.0.0",
  "updatedAt": "2018-04-01T09:49:45.107Z"
}